{
    "_format": "hh-sol-artifact-1",
    "contractName": "BurningMan",
    "sourceName": "contracts/BurningMan.sol",
    "abi": [
        {
            "inputs": [
                {
                    "internalType": "address",
                    "name": "initialOwner",
                    "type": "address"
                }
            ],
            "stateMutability": "payable",
            "type": "constructor"
        },
        {
            "inputs": [
                {
                    "internalType": "address",
                    "name": "sender",
                    "type": "address"
                },
                {
                    "internalType": "uint256",
                    "name": "tokenId",
                    "type": "uint256"
                },
                {
                    "internalType": "address",
                    "name": "owner",
                    "type": "address"
                }
            ],
            "name": "ERC721IncorrectOwner",
            "type": "error"
        },
        {
            "inputs": [
                {
                    "internalType": "address",
                    "name": "operator",
                    "type": "address"
                },
                {
                    "internalType": "uint256",
                    "name": "tokenId",
                    "type": "uint256"
                }
            ],
            "name": "ERC721InsufficientApproval",
            "type": "error"
        },
        {
            "inputs": [
                {
                    "internalType": "address",
                    "name": "approver",
                    "type": "address"
                }
            ],
            "name": "ERC721InvalidApprover",
            "type": "error"
        },
        {
            "inputs": [
                {
                    "internalType": "address",
                    "name": "operator",
                    "type": "address"
                }
            ],
            "name": "ERC721InvalidOperator",
            "type": "error"
        },
        {
            "inputs": [
                {
                    "internalType": "address",
                    "name": "owner",
                    "type": "address"
                }
            ],
            "name": "ERC721InvalidOwner",
            "type": "error"
        },
        {
            "inputs": [
                {
                    "internalType": "address",
                    "name": "receiver",
                    "type": "address"
                }
            ],
            "name": "ERC721InvalidReceiver",
            "type": "error"
        },
        {
            "inputs": [
                {
                    "internalType": "address",
                    "name": "sender",
                    "type": "address"
                }
            ],
            "name": "ERC721InvalidSender",
            "type": "error"
        },
        {
            "inputs": [
                {
                    "internalType": "uint256",
                    "name": "tokenId",
                    "type": "uint256"
                }
            ],
            "name": "ERC721NonexistentToken",
            "type": "error"
        },
        {
            "inputs": [
                {
                    "internalType": "address",
                    "name": "owner",
                    "type": "address"
                }
            ],
            "name": "OwnableInvalidOwner",
            "type": "error"
        },
        {
            "inputs": [
                {
                    "internalType": "address",
                    "name": "account",
                    "type": "address"
                }
            ],
            "name": "OwnableUnauthorizedAccount",
            "type": "error"
        },
        {
            "anonymous": false,
            "inputs": [
                {
                    "indexed": true,
                    "internalType": "address",
                    "name": "owner",
                    "type": "address"
                },
                {
                    "indexed": true,
                    "internalType": "address",
                    "name": "approved",
                    "type": "address"
                },
                {
                    "indexed": true,
                    "internalType": "uint256",
                    "name": "tokenId",
                    "type": "uint256"
                }
            ],
            "name": "Approval",
            "type": "event"
        },
        {
            "anonymous": false,
            "inputs": [
                {
                    "indexed": true,
                    "internalType": "address",
                    "name": "owner",
                    "type": "address"
                },
                {
                    "indexed": true,
                    "internalType": "address",
                    "name": "operator",
                    "type": "address"
                },
                {
                    "indexed": false,
                    "internalType": "bool",
                    "name": "approved",
                    "type": "bool"
                }
            ],
            "name": "ApprovalForAll",
            "type": "event"
        },
        {
            "anonymous": false,
            "inputs": [
                {
                    "indexed": true,
                    "internalType": "address",
                    "name": "previousOwner",
                    "type": "address"
                },
                {
                    "indexed": true,
                    "internalType": "address",
                    "name": "newOwner",
                    "type": "address"
                }
            ],
            "name": "OwnershipTransferred",
            "type": "event"
        },
        {
            "anonymous": false,
            "inputs": [
                {
                    "indexed": true,
                    "internalType": "address",
                    "name": "from",
                    "type": "address"
                },
                {
                    "indexed": true,
                    "internalType": "address",
                    "name": "to",
                    "type": "address"
                },
                {
                    "indexed": true,
                    "internalType": "uint256",
                    "name": "tokenId",
                    "type": "uint256"
                }
            ],
            "name": "Transfer",
            "type": "event"
        },
        {
            "inputs": [
                {
                    "internalType": "address",
                    "name": "to",
                    "type": "address"
                },
                {
                    "internalType": "uint256",
                    "name": "tokenId",
                    "type": "uint256"
                }
            ],
            "name": "approve",
            "outputs": [],
            "stateMutability": "nonpayable",
            "type": "function"
        },
        {
            "inputs": [
                {
                    "internalType": "address",
                    "name": "owner",
                    "type": "address"
                }
            ],
            "name": "balanceOf",
            "outputs": [
                {
                    "internalType": "uint256",
                    "name": "",
                    "type": "uint256"
                }
            ],
            "stateMutability": "view",
            "type": "function"
        },
        {
            "inputs": [
                {
                    "internalType": "uint256",
                    "name": "tokenId",
                    "type": "uint256"
                }
            ],
            "name": "getApproved",
            "outputs": [
                {
                    "internalType": "address",
                    "name": "",
                    "type": "address"
                }
            ],
            "stateMutability": "view",
            "type": "function"
        },
        {
            "inputs": [
                {
                    "internalType": "address",
                    "name": "owner",
                    "type": "address"
                },
                {
                    "internalType": "address",
                    "name": "operator",
                    "type": "address"
                }
            ],
            "name": "isApprovedForAll",
            "outputs": [
                {
                    "internalType": "bool",
                    "name": "",
                    "type": "bool"
                }
            ],
            "stateMutability": "view",
            "type": "function"
        },
        {
            "inputs": [],
            "name": "isMintEnabled",
            "outputs": [
                {
                    "internalType": "bool",
                    "name": "",
                    "type": "bool"
                }
            ],
            "stateMutability": "view",
            "type": "function"
        },
        {
            "inputs": [],
            "name": "maxPerWallet",
            "outputs": [
                {
                    "internalType": "uint256",
                    "name": "",
                    "type": "uint256"
                }
            ],
            "stateMutability": "view",
            "type": "function"
        },
        {
            "inputs": [],
            "name": "maxSupply",
            "outputs": [
                {
                    "internalType": "uint256",
                    "name": "",
                    "type": "uint256"
                }
            ],
            "stateMutability": "view",
            "type": "function"
        },
        {
            "inputs": [
                {
                    "internalType": "uint256",
                    "name": "_quantity",
                    "type": "uint256"
                }
            ],
            "name": "mint",
            "outputs": [],
            "stateMutability": "payable",
            "type": "function"
        },
        {
            "inputs": [],
            "name": "mintPrice",
            "outputs": [
                {
                    "internalType": "uint256",
                    "name": "",
                    "type": "uint256"
                }
            ],
            "stateMutability": "view",
            "type": "function"
        },
        {
            "inputs": [],
            "name": "name",
            "outputs": [
                {
                    "internalType": "string",
                    "name": "",
                    "type": "string"
                }
            ],
            "stateMutability": "view",
            "type": "function"
        },
        {
            "inputs": [],
            "name": "owner",
            "outputs": [
                {
                    "internalType": "address",
                    "name": "",
                    "type": "address"
                }
            ],
            "stateMutability": "view",
            "type": "function"
        },
        {
            "inputs": [
                {
                    "internalType": "uint256",
                    "name": "tokenId",
                    "type": "uint256"
                }
            ],
            "name": "ownerOf",
            "outputs": [
                {
                    "internalType": "address",
                    "name": "",
                    "type": "address"
                }
            ],
            "stateMutability": "view",
            "type": "function"
        },
        {
            "inputs": [],
            "name": "renounceOwnership",
            "outputs": [],
            "stateMutability": "nonpayable",
            "type": "function"
        },
        {
            "inputs": [
                {
                    "internalType": "address",
                    "name": "from",
                    "type": "address"
                },
                {
                    "internalType": "address",
                    "name": "to",
                    "type": "address"
                },
                {
                    "internalType": "uint256",
                    "name": "tokenId",
                    "type": "uint256"
                }
            ],
            "name": "safeTransferFrom",
            "outputs": [],
            "stateMutability": "nonpayable",
            "type": "function"
        },
        {
            "inputs": [
                {
                    "internalType": "address",
                    "name": "from",
                    "type": "address"
                },
                {
                    "internalType": "address",
                    "name": "to",
                    "type": "address"
                },
                {
                    "internalType": "uint256",
                    "name": "tokenId",
                    "type": "uint256"
                },
                {
                    "internalType": "bytes",
                    "name": "data",
                    "type": "bytes"
                }
            ],
            "name": "safeTransferFrom",
            "outputs": [],
            "stateMutability": "nonpayable",
            "type": "function"
        },
        {
            "inputs": [
                {
                    "internalType": "address",
                    "name": "operator",
                    "type": "address"
                },
                {
                    "internalType": "bool",
                    "name": "approved",
                    "type": "bool"
                }
            ],
            "name": "setApprovalForAll",
            "outputs": [],
            "stateMutability": "nonpayable",
            "type": "function"
        },
        {
            "inputs": [
                {
                    "internalType": "string",
                    "name": "_baseTokenUri",
                    "type": "string"
                }
            ],
            "name": "setBaseTokenUri",
            "outputs": [],
            "stateMutability": "nonpayable",
            "type": "function"
        },
        {
            "inputs": [
                {
                    "internalType": "bool",
                    "name": "_isMintEnabled",
                    "type": "bool"
                }
            ],
            "name": "setIsMintEnabled",
            "outputs": [],
            "stateMutability": "nonpayable",
            "type": "function"
        },
        {
            "inputs": [
                {
                    "internalType": "bytes4",
                    "name": "interfaceId",
                    "type": "bytes4"
                }
            ],
            "name": "supportsInterface",
            "outputs": [
                {
                    "internalType": "bool",
                    "name": "",
                    "type": "bool"
                }
            ],
            "stateMutability": "view",
            "type": "function"
        },
        {
            "inputs": [],
            "name": "symbol",
            "outputs": [
                {
                    "internalType": "string",
                    "name": "",
                    "type": "string"
                }
            ],
            "stateMutability": "view",
            "type": "function"
        },
        {
            "inputs": [
                {
                    "internalType": "uint256",
                    "name": "_tokenId",
                    "type": "uint256"
                }
            ],
            "name": "tokenURI",
            "outputs": [
                {
                    "internalType": "string",
                    "name": "",
                    "type": "string"
                }
            ],
            "stateMutability": "view",
            "type": "function"
        },
        {
            "inputs": [],
            "name": "totalSupply",
            "outputs": [
                {
                    "internalType": "uint256",
                    "name": "",
                    "type": "uint256"
                }
            ],
            "stateMutability": "view",
            "type": "function"
        },
        {
            "inputs": [
                {
                    "internalType": "address",
                    "name": "from",
                    "type": "address"
                },
                {
                    "internalType": "address",
                    "name": "to",
                    "type": "address"
                },
                {
                    "internalType": "uint256",
                    "name": "tokenId",
                    "type": "uint256"
                }
            ],
            "name": "transferFrom",
            "outputs": [],
            "stateMutability": "nonpayable",
            "type": "function"
        },
        {
            "inputs": [
                {
                    "internalType": "address",
                    "name": "newOwner",
                    "type": "address"
                }
            ],
            "name": "transferOwnership",
            "outputs": [],
            "stateMutability": "nonpayable",
            "type": "function"
        },
        {
            "inputs": [
                {
                    "internalType": "address",
                    "name": "",
                    "type": "address"
                }
            ],
            "name": "walletMints",
            "outputs": [
                {
                    "internalType": "uint256",
                    "name": "",
                    "type": "uint256"
                }
            ],
            "stateMutability": "view",
            "type": "function"
        },
        {
            "inputs": [],
            "name": "withdraw",
            "outputs": [],
            "stateMutability": "nonpayable",
            "type": "function"
        },
        {
            "inputs": [],
            "name": "withdrawWallet",
            "outputs": [
                {
                    "internalType": "address payable",
                    "name": "",
                    "type": "address"
                }
            ],
            "stateMutability": "view",
            "type": "function"
        }
    ],
    "bytecode": "0x608060405260405162001ace38038062001ace833981016040819052620000269162000137565b806040518060400160405280600a815260200169213ab93734b733a6b0b760b11b81525060405180604001604052806002815260200161424d60f01b815250816000908162000076919062000210565b50600162000085828262000210565b5050506001600160a01b038116620000b757604051631e4fbdf760e01b81526000600482015260240160405180910390fd5b620000c281620000e5565b505066470de4df82000060075560006008556103e86009556005600a55620002dc565b600680546001600160a01b038381166001600160a01b0319831681179093556040519116919082907f8be0079c531659141344cd1fd0a4f28419497f9722a3daafe3b4186f6b6457e090600090a35050565b6000602082840312156200014a57600080fd5b81516001600160a01b03811681146200016257600080fd5b9392505050565b634e487b7160e01b600052604160045260246000fd5b600181811c908216806200019457607f821691505b602082108103620001b557634e487b7160e01b600052602260045260246000fd5b50919050565b601f8211156200020b576000816000526020600020601f850160051c81016020861015620001e65750805b601f850160051c820191505b818110156200020757828155600101620001f2565b5050505b505050565b81516001600160401b038111156200022c576200022c62000169565b62000244816200023d84546200017f565b84620001bb565b602080601f8311600181146200027c5760008415620002635750858301515b600019600386901b1c1916600185901b17855562000207565b600085815260208120601f198616915b82811015620002ad578886015182559484019460019091019084016200028c565b5085821015620002cc5787850151600019600388901b60f8161c191681555b5050505050600190811b01905550565b6117e280620002ec6000396000f3fe60806040526004361061019c5760003560e01c806370a08231116100ec578063a22cb4651161008a578063d5abeb0111610064578063d5abeb011461046c578063e985e9c514610482578063f0293fd3146104a2578063f2fde38b146104cf57600080fd5b8063a22cb4651461040c578063b88d4fde1461042c578063c87b56dd1461044c57600080fd5b80638da5cb5b116100c65780638da5cb5b146103a657806395652cfa146103c457806395d89b41146103e4578063a0712d68146103f957600080fd5b806370a0823114610351578063715018a61461037157806385d178f41461038657600080fd5b8063346de50a11610159578063453c231011610133578063453c2310146102e55780634de8bcfb146102fb5780636352211e1461031b5780636817c76c1461033b57600080fd5b8063346de50a146102965780633ccfd60b146102b057806342842e0e146102c557600080fd5b806301ffc9a7146101a157806306fdde03146101d6578063081812fc146101f8578063095ea7b31461023057806318160ddd1461025257806323b872dd14610276575b600080fd5b3480156101ad57600080fd5b506101c16101bc3660046111ef565b6104ef565b60405190151581526020015b60405180910390f35b3480156101e257600080fd5b506101eb610541565b6040516101cd9190611263565b34801561020457600080fd5b50610218610213366004611276565b6105d3565b6040516001600160a01b0390911681526020016101cd565b34801561023c57600080fd5b5061025061024b3660046112ab565b6105fc565b005b34801561025e57600080fd5b5061026860085481565b6040519081526020016101cd565b34801561028257600080fd5b506102506102913660046112d5565b61060b565b3480156102a257600080fd5b50600b546101c19060ff1681565b3480156102bc57600080fd5b5061025061069b565b3480156102d157600080fd5b506102506102e03660046112d5565b610706565b3480156102f157600080fd5b50610268600a5481565b34801561030757600080fd5b50610250610316366004611321565b610726565b34801561032757600080fd5b50610218610336366004611276565b610741565b34801561034757600080fd5b5061026860075481565b34801561035d57600080fd5b5061026861036c36600461133c565b61074c565b34801561037d57600080fd5b50610250610794565b34801561039257600080fd5b50600d54610218906001600160a01b031681565b3480156103b257600080fd5b506006546001600160a01b0316610218565b3480156103d057600080fd5b506102506103df366004611357565b6107a8565b3480156103f057600080fd5b506101eb6107bd565b610250610407366004611276565b6107cc565b34801561041857600080fd5b506102506104273660046113c9565b61096b565b34801561043857600080fd5b50610250610447366004611412565b610976565b34801561045857600080fd5b506101eb610467366004611276565b61098d565b34801561047857600080fd5b5061026860095481565b34801561048e57600080fd5b506101c161049d3660046114ee565b610a19565b3480156104ae57600080fd5b506102686104bd36600461133c565b600e6020526000908152604090205481565b3480156104db57600080fd5b506102506104ea36600461133c565b610a47565b60006001600160e01b031982166380ac58cd60e01b148061052057506001600160e01b03198216635b5e139f60e01b145b8061053b57506301ffc9a760e01b6001600160e01b03198316145b92915050565b60606000805461055090611518565b80601f016020809104026020016040519081016040528092919081815260200182805461057c90611518565b80156105c95780601f1061059e576101008083540402835291602001916105c9565b820191906000526020600020905b8154815290600101906020018083116105ac57829003601f168201915b5050505050905090565b60006105de82610a82565b506000828152600460205260409020546001600160a01b031661053b565b610607828233610abb565b5050565b6001600160a01b03821661063a57604051633250574960e11b8152600060048201526024015b60405180910390fd5b6000610647838333610ac8565b9050836001600160a01b0316816001600160a01b031614610695576040516364283d7b60e01b81526001600160a01b0380861660048301526024820184905282166044820152606401610631565b50505050565b6106a3610bc1565b600d546040516000916001600160a01b03169047908381818185875af1925050503d80600081146106f0576040519150601f19603f3d011682016040523d82523d6000602084013e6106f5565b606091505b505090508061070357600080fd5b50565b61072183838360405180602001604052806000815250610976565b505050565b61072e610bc1565b600b805460ff1916911515919091179055565b600061053b82610a82565b60006001600160a01b038216610778576040516322718ad960e21b815260006004820152602401610631565b506001600160a01b031660009081526003602052604090205490565b61079c610bc1565b6107a66000610bee565b565b6107b0610bc1565b600c6107218284836115a2565b60606001805461055090611518565b600b5460ff166108145760405162461bcd60e51b8152602060048201526013602482015272135a5b9d1a5b99c81b9bdd08195b98589b1959606a1b6044820152606401610631565b6007546108219082611678565b34146108665760405162461bcd60e51b8152602060048201526014602482015273496e636f7272656374206d696e742076616c756560601b6044820152606401610631565b60095481600854610877919061168f565b11156108b95760405162461bcd60e51b8152602060048201526011602482015270151bdad95b881a5cc81cdbdb19081bdd5d607a1b6044820152606401610631565b600a54336000908152600e60205260409020546108d790839061168f565b11156109255760405162461bcd60e51b815260206004820152601d60248201527f45786365656473206d617820616d6f756e74207065722077616c6c65740000006044820152606401610631565b60005b818110156106075760006008546001610941919061168f565b600880549192506000610953836116a2565b91905055506109623382610c40565b50600101610928565b610607338383610c5a565b61098184848461060b565b61069584848484610cf9565b6060600061099a83610741565b6001600160a01b0316036109e75760405162461bcd60e51b8152602060048201526014602482015273151bdad95b88191bd95cc81b9bdd08195e1a5cdd60621b6044820152606401610631565b600c6109f283610e22565b604051602001610a039291906116bb565b6040516020818303038152906040529050919050565b6001600160a01b03918216600090815260056020908152604080832093909416825291909152205460ff1690565b610a4f610bc1565b6001600160a01b038116610a7957604051631e4fbdf760e01b815260006004820152602401610631565b61070381610bee565b6000818152600260205260408120546001600160a01b03168061053b57604051637e27328960e01b815260048101849052602401610631565b6107218383836001610eb5565b6000828152600260205260408120546001600160a01b0390811690831615610af557610af5818486610fbb565b6001600160a01b03811615610b3357610b12600085600080610eb5565b6001600160a01b038116600090815260036020526040902080546000190190555b6001600160a01b03851615610b62576001600160a01b0385166000908152600360205260409020805460010190555b60008481526002602052604080822080546001600160a01b0319166001600160a01b0389811691821790925591518793918516917fddf252ad1be2c89b69c2b068fc378daa952ba7f163c4a11628f55a4df523b3ef91a4949350505050565b6006546001600160a01b031633146107a65760405163118cdaa760e01b8152336004820152602401610631565b600680546001600160a01b038381166001600160a01b0319831681179093556040519116919082907f8be0079c531659141344cd1fd0a4f28419497f9722a3daafe3b4186f6b6457e090600090a35050565b61060782826040518060200160405280600081525061101f565b6001600160a01b038216610c8c57604051630b61174360e31b81526001600160a01b0383166004820152602401610631565b6001600160a01b03838116600081815260056020908152604080832094871680845294825291829020805460ff191686151590811790915591519182527f17307eab39ab6107e8899845ad3d59bd9653f200f220920489ca2b5937696c31910160405180910390a3505050565b6001600160a01b0383163b1561069557604051630a85bd0160e11b81526001600160a01b0384169063150b7a0290610d3b903390889087908790600401611752565b6020604051808303816000875af1925050508015610d76575060408051601f3d908101601f19168201909252610d739181019061178f565b60015b610ddf573d808015610da4576040519150601f19603f3d011682016040523d82523d6000602084013e610da9565b606091505b508051600003610dd757604051633250574960e11b81526001600160a01b0385166004820152602401610631565b805181602001fd5b6001600160e01b03198116630a85bd0160e11b14610e1b57604051633250574960e11b81526001600160a01b0385166004820152602401610631565b5050505050565b60606000610e2f83611036565b600101905060008167ffffffffffffffff811115610e4f57610e4f6113fc565b6040519080825280601f01601f191660200182016040528015610e79576020820181803683370190505b5090508181016020015b600019016f181899199a1a9b1b9c1cb0b131b232b360811b600a86061a8153600a8504945084610e8357509392505050565b8080610ec957506001600160a01b03821615155b15610f8b576000610ed984610a82565b90506001600160a01b03831615801590610f055750826001600160a01b0316816001600160a01b031614155b8015610f185750610f168184610a19565b155b15610f415760405163a9fbf51f60e01b81526001600160a01b0384166004820152602401610631565b8115610f895783856001600160a01b0316826001600160a01b03167f8c5be1e5ebec7d5bd14f71427d1e84f3dd0314c0f7b2291e5b200ac8c7c3b92560405160405180910390a45b505b5050600090815260046020526040902080546001600160a01b0319166001600160a01b0392909216919091179055565b610fc683838361110e565b610721576001600160a01b038316610ff457604051637e27328960e01b815260048101829052602401610631565b60405163177e802f60e01b81526001600160a01b038316600482015260248101829052604401610631565b6110298383611174565b6107216000848484610cf9565b60008072184f03e93ff9f4daa797ed6e38ed64bf6a1f0160401b83106110755772184f03e93ff9f4daa797ed6e38ed64bf6a1f0160401b830492506040015b6d04ee2d6d415b85acef810000000083106110a1576d04ee2d6d415b85acef8100000000830492506020015b662386f26fc1000083106110bf57662386f26fc10000830492506010015b6305f5e10083106110d7576305f5e100830492506008015b61271083106110eb57612710830492506004015b606483106110fd576064830492506002015b600a831061053b5760010192915050565b60006001600160a01b0383161580159061116c5750826001600160a01b0316846001600160a01b0316148061114857506111488484610a19565b8061116c57506000828152600460205260409020546001600160a01b038481169116145b949350505050565b6001600160a01b03821661119e57604051633250574960e11b815260006004820152602401610631565b60006111ac83836000610ac8565b90506001600160a01b03811615610721576040516339e3563760e11b815260006004820152602401610631565b6001600160e01b03198116811461070357600080fd5b60006020828403121561120157600080fd5b813561120c816111d9565b9392505050565b60005b8381101561122e578181015183820152602001611216565b50506000910152565b6000815180845261124f816020860160208601611213565b601f01601f19169290920160200192915050565b60208152600061120c6020830184611237565b60006020828403121561128857600080fd5b5035919050565b80356001600160a01b03811681146112a657600080fd5b919050565b600080604083850312156112be57600080fd5b6112c78361128f565b946020939093013593505050565b6000806000606084860312156112ea57600080fd5b6112f38461128f565b92506113016020850161128f565b9150604084013590509250925092565b803580151581146112a657600080fd5b60006020828403121561133357600080fd5b61120c82611311565b60006020828403121561134e57600080fd5b61120c8261128f565b6000806020838503121561136a57600080fd5b823567ffffffffffffffff8082111561138257600080fd5b818501915085601f83011261139657600080fd5b8135818111156113a557600080fd5b8660208285010111156113b757600080fd5b60209290920196919550909350505050565b600080604083850312156113dc57600080fd5b6113e58361128f565b91506113f360208401611311565b90509250929050565b634e487b7160e01b600052604160045260246000fd5b6000806000806080858703121561142857600080fd5b6114318561128f565b935061143f6020860161128f565b925060408501359150606085013567ffffffffffffffff8082111561146357600080fd5b818701915087601f83011261147757600080fd5b813581811115611489576114896113fc565b604051601f8201601f19908116603f011681019083821181831017156114b1576114b16113fc565b816040528281528a60208487010111156114ca57600080fd5b82602086016020830137600060208483010152809550505050505092959194509250565b6000806040838503121561150157600080fd5b61150a8361128f565b91506113f36020840161128f565b600181811c9082168061152c57607f821691505b60208210810361154c57634e487b7160e01b600052602260045260246000fd5b50919050565b601f821115610721576000816000526020600020601f850160051c8101602086101561157b5750805b601f850160051c820191505b8181101561159a57828155600101611587565b505050505050565b67ffffffffffffffff8311156115ba576115ba6113fc565b6115ce836115c88354611518565b83611552565b6000601f84116001811461160257600085156115ea5750838201355b600019600387901b1c1916600186901b178355610e1b565b600083815260209020601f19861690835b828110156116335786850135825560209485019460019092019101611613565b50868210156116505760001960f88860031b161c19848701351681555b505060018560011b0183555050505050565b634e487b7160e01b600052601160045260246000fd5b808202811582820484141761053b5761053b611662565b8082018082111561053b5761053b611662565b6000600182016116b4576116b4611662565b5060010190565b60008084546116c981611518565b600182811680156116e157600181146116f657611725565b60ff1984168752821515830287019450611725565b8860005260208060002060005b8581101561171c5781548a820152908401908201611703565b50505082870194505b505050508351611739818360208801611213565b64173539b7b760d91b9101908152600501949350505050565b6001600160a01b038581168252841660208201526040810183905260806060820181905260009061178590830184611237565b9695505050505050565b6000602082840312156117a157600080fd5b815161120c816111d956fea2646970667358221220246ca4b4a5d1c8b248da25b9e9dfe29c41ab09e7a4fe6d9489c94cdc6e49c1c564736f6c63430008180033",
    "linkReferences": {},
    "deployedLinkReferences": {}
}